:100000002500140A030A10024306130A020C2B00EF
:100010006A00EA02090AEB02080A970C2A00EA02BF
:100020000F0AF002060A0008FF0C2E00C804E804BC
:10003000C804E804270C270000022000060C2A0050
:10004000EA02200A00000702000C06002E00000C45
:100050002E00060066006E050E02060066070E04FE
:100060000E0206000605040C2F00C80C3000030920
:10007000EF02350A0E040E0206000604320C3000B0
:1000800003092E040E0206002605040C2F00C80CDE
:1000900030000309EF02470A2E040E020600260470
:1000A000320C300003094E040E0206004605040C13
:1000B0002F00C80C30000309EF02590A4E040E024B
:1000C00006004604320C300003098E040E020600BE
:1000D0008605040C2F00C80C30000309EF026B0AE0
:1000E0008E040E0206008604320C30000309AE04B2
:1000F0000E020600A605040C2F00C80C30000309F0
:10010000EF027D0AAE040E020600A604320C300097
:0601100003092F0A0300A1
:021FFE00EA0FE8
:00000001FF
;PIC12F510
;CRC=1613  CREATED="08-Oca-24 01:41"
