:100000002500150A030A11024306130A020C2B00ED
:100010006A00EA02090AEB02080A970C2A00EA02BF
:100020000F0AF102060AA3043D0AFF0C2E00C804C1
:10003000E804C804E804270C270000022000060C8E
:100040002A00EA02210A0000070270008606B002B8
:100050000F02900043063A0A10022F0030024307B5
:10006000360AAE040E020600A6053A0AAE040E02D7
:0E0070000600A604320C3100020A250A030025
:021FFE00FA0FD8
:00000001FF
;PIC12F510
;CRC=A037  CREATED="13-Oca-24 01:13"
